{
  "contractName": "Example",
  "abi": [
    {
      "inputs": [
        {
          "internalType": "string",
          "name": "_name",
          "type": "string"
        },
        {
          "internalType": "string",
          "name": "_symbol",
          "type": "string"
        }
      ],
      "stateMutability": "nonpayable",
      "type": "constructor"
    },
    {
      "anonymous": false,
      "inputs": [
        {
          "indexed": true,
          "internalType": "address",
          "name": "owner",
          "type": "address"
        },
        {
          "indexed": true,
          "internalType": "address",
          "name": "approved",
          "type": "address"
        },
        {
          "indexed": true,
          "internalType": "uint256",
          "name": "tokenId",
          "type": "uint256"
        }
      ],
      "name": "Approval",
      "type": "event"
    },
    {
      "anonymous": false,
      "inputs": [
        {
          "indexed": true,
          "internalType": "address",
          "name": "owner",
          "type": "address"
        },
        {
          "indexed": true,
          "internalType": "address",
          "name": "operator",
          "type": "address"
        },
        {
          "indexed": false,
          "internalType": "bool",
          "name": "approved",
          "type": "bool"
        }
      ],
      "name": "ApprovalForAll",
      "type": "event"
    },
    {
      "anonymous": false,
      "inputs": [
        {
          "indexed": true,
          "internalType": "address",
          "name": "from",
          "type": "address"
        },
        {
          "indexed": true,
          "internalType": "address",
          "name": "to",
          "type": "address"
        },
        {
          "indexed": true,
          "internalType": "uint256",
          "name": "tokenId",
          "type": "uint256"
        }
      ],
      "name": "Transfer",
      "type": "event"
    },
    {
      "inputs": [
        {
          "internalType": "address",
          "name": "to",
          "type": "address"
        },
        {
          "internalType": "uint256",
          "name": "tokenId",
          "type": "uint256"
        }
      ],
      "name": "approve",
      "outputs": [],
      "stateMutability": "nonpayable",
      "type": "function"
    },
    {
      "inputs": [
        {
          "internalType": "address",
          "name": "owner",
          "type": "address"
        }
      ],
      "name": "balanceOf",
      "outputs": [
        {
          "internalType": "uint256",
          "name": "",
          "type": "uint256"
        }
      ],
      "stateMutability": "view",
      "type": "function"
    },
    {
      "inputs": [
        {
          "internalType": "uint256",
          "name": "tokenId",
          "type": "uint256"
        }
      ],
      "name": "getApproved",
      "outputs": [
        {
          "internalType": "address",
          "name": "",
          "type": "address"
        }
      ],
      "stateMutability": "view",
      "type": "function"
    },
    {
      "inputs": [
        {
          "internalType": "address",
          "name": "owner",
          "type": "address"
        },
        {
          "internalType": "address",
          "name": "operator",
          "type": "address"
        }
      ],
      "name": "isApprovedForAll",
      "outputs": [
        {
          "internalType": "bool",
          "name": "",
          "type": "bool"
        }
      ],
      "stateMutability": "view",
      "type": "function"
    },
    {
      "inputs": [],
      "name": "name",
      "outputs": [
        {
          "internalType": "string",
          "name": "",
          "type": "string"
        }
      ],
      "stateMutability": "view",
      "type": "function"
    },
    {
      "inputs": [
        {
          "internalType": "uint256",
          "name": "tokenId",
          "type": "uint256"
        }
      ],
      "name": "ownerOf",
      "outputs": [
        {
          "internalType": "address",
          "name": "",
          "type": "address"
        }
      ],
      "stateMutability": "view",
      "type": "function"
    },
    {
      "inputs": [
        {
          "internalType": "address",
          "name": "from",
          "type": "address"
        },
        {
          "internalType": "address",
          "name": "to",
          "type": "address"
        },
        {
          "internalType": "uint256",
          "name": "tokenId",
          "type": "uint256"
        }
      ],
      "name": "safeTransferFrom",
      "outputs": [],
      "stateMutability": "nonpayable",
      "type": "function"
    },
    {
      "inputs": [
        {
          "internalType": "address",
          "name": "from",
          "type": "address"
        },
        {
          "internalType": "address",
          "name": "to",
          "type": "address"
        },
        {
          "internalType": "uint256",
          "name": "tokenId",
          "type": "uint256"
        },
        {
          "internalType": "bytes",
          "name": "_data",
          "type": "bytes"
        }
      ],
      "name": "safeTransferFrom",
      "outputs": [],
      "stateMutability": "nonpayable",
      "type": "function"
    },
    {
      "inputs": [
        {
          "internalType": "address",
          "name": "operator",
          "type": "address"
        },
        {
          "internalType": "bool",
          "name": "approved",
          "type": "bool"
        }
      ],
      "name": "setApprovalForAll",
      "outputs": [],
      "stateMutability": "nonpayable",
      "type": "function"
    },
    {
      "inputs": [
        {
          "internalType": "bytes4",
          "name": "interfaceId",
          "type": "bytes4"
        }
      ],
      "name": "supportsInterface",
      "outputs": [
        {
          "internalType": "bool",
          "name": "",
          "type": "bool"
        }
      ],
      "stateMutability": "view",
      "type": "function"
    },
    {
      "inputs": [],
      "name": "symbol",
      "outputs": [
        {
          "internalType": "string",
          "name": "",
          "type": "string"
        }
      ],
      "stateMutability": "view",
      "type": "function"
    },
    {
      "inputs": [
        {
          "internalType": "address",
          "name": "from",
          "type": "address"
        },
        {
          "internalType": "address",
          "name": "to",
          "type": "address"
        },
        {
          "internalType": "uint256",
          "name": "tokenId",
          "type": "uint256"
        }
      ],
      "name": "transferFrom",
      "outputs": [],
      "stateMutability": "nonpayable",
      "type": "function"
    },
    {
      "inputs": [
        {
          "internalType": "string",
          "name": "baseURI_",
          "type": "string"
        }
      ],
      "name": "setBaseURI",
      "outputs": [],
      "stateMutability": "nonpayable",
      "type": "function"
    },
    {
      "inputs": [
        {
          "internalType": "uint256",
          "name": "tokenId",
          "type": "uint256"
        }
      ],
      "name": "tokenURI",
      "outputs": [
        {
          "internalType": "string",
          "name": "",
          "type": "string"
        }
      ],
      "stateMutability": "view",
      "type": "function"
    },
    {
      "inputs": [
        {
          "internalType": "address",
          "name": "_to",
          "type": "address"
        },
        {
          "internalType": "uint256",
          "name": "_tokenId",
          "type": "uint256"
        },
        {
          "internalType": "string",
          "name": "tokenURI_",
          "type": "string"
        }
      ],
      "name": "mint",
      "outputs": [],
      "stateMutability": "nonpayable",
      "type": "function"
    }
  ],
  "bytecode": "0x60806040523480156200001157600080fd5b5060405162002d7d38038062002d7d833981810160405281019062000037919062000197565b818181600090805190602001906200005192919062000075565b5080600190805190602001906200006a92919062000075565b50505050506200033b565b8280546200008390620002a7565b90600052602060002090601f016020900481019282620000a75760008555620000f3565b82601f10620000c257805160ff1916838001178555620000f3565b82800160010185558215620000f3579182015b82811115620000f2578251825591602001919060010190620000d5565b5b50905062000102919062000106565b5090565b5b808211156200012157600081600090555060010162000107565b5090565b60006200013c62000136846200023e565b6200020a565b9050828152602081018484840111156200015557600080fd5b6200016284828562000271565b509392505050565b600082601f8301126200017c57600080fd5b81516200018e84826020860162000125565b91505092915050565b60008060408385031215620001ab57600080fd5b600083015167ffffffffffffffff811115620001c657600080fd5b620001d4858286016200016a565b925050602083015167ffffffffffffffff811115620001f257600080fd5b62000200858286016200016a565b9150509250929050565b6000604051905081810181811067ffffffffffffffff821117156200023457620002336200030c565b5b8060405250919050565b600067ffffffffffffffff8211156200025c576200025b6200030c565b5b601f19601f8301169050602081019050919050565b60005b838110156200029157808201518184015260208101905062000274565b83811115620002a1576000848401525b50505050565b60006002820490506001821680620002c057607f821691505b60208210811415620002d757620002d6620002dd565b5b50919050565b7f4e487b7100000000000000000000000000000000000000000000000000000000600052602260045260246000fd5b7f4e487b7100000000000000000000000000000000000000000000000000000000600052604160045260246000fd5b612a32806200034b6000396000f3fe608060405234801561001057600080fd5b50600436106100f55760003560e01c80636352211e11610097578063b88d4fde11610066578063b88d4fde14610282578063c87b56dd1461029e578063d3fc9864146102ce578063e985e9c5146102ea576100f5565b80636352211e146101e857806370a082311461021857806395d89b4114610248578063a22cb46514610266576100f5565b8063095ea7b3116100d3578063095ea7b31461017857806323b872dd1461019457806342842e0e146101b057806355f804b3146101cc576100f5565b806301ffc9a7146100fa57806306fdde031461012a578063081812fc14610148575b600080fd5b610114600480360381019061010f9190611c0b565b61031a565b60405161012191906123aa565b60405180910390f35b6101326103fc565b60405161013f91906123c5565b60405180910390f35b610162600480360381019061015d9190611c9e565b61048e565b60405161016f9190612343565b60405180910390f35b610192600480360381019061018d9190611b68565b610513565b005b6101ae60048036038101906101a99190611a62565b61062b565b005b6101ca60048036038101906101c59190611a62565b61068b565b005b6101e660048036038101906101e19190611c5d565b6106ab565b005b61020260048036038101906101fd9190611c9e565b6106c5565b60405161020f9190612343565b60405180910390f35b610232600480360381019061022d91906119fd565b610777565b60405161023f91906125c7565b60405180910390f35b61025061082f565b60405161025d91906123c5565b60405180910390f35b610280600480360381019061027b9190611b2c565b6108c1565b005b61029c60048036038101906102979190611ab1565b610a42565b005b6102b860048036038101906102b39190611c9e565b610aa4565b6040516102c591906123c5565b60405180910390f35b6102e860048036038101906102e39190611ba4565b610c17565b005b61030460048036038101906102ff9190611a26565b610c30565b60405161031191906123aa565b60405180910390f35b60007f80ac58cd000000000000000000000000000000000000000000000000000000007bffffffffffffffffffffffffffffffffffffffffffffffffffffffff1916827bffffffffffffffffffffffffffffffffffffffffffffffffffffffff191614806103e557507f5b5e139f000000000000000000000000000000000000000000000000000000007bffffffffffffffffffffffffffffffffffffffffffffffffffffffff1916827bffffffffffffffffffffffffffffffffffffffffffffffffffffffff1916145b806103f557506103f482610cc4565b5b9050919050565b60606000805461040b90612827565b80601f016020809104026020016040519081016040528092919081815260200182805461043790612827565b80156104845780601f1061045957610100808354040283529160200191610484565b820191906000526020600020905b81548152906001019060200180831161046757829003601f168201915b5050505050905090565b600061049982610d2e565b6104d8576040517f08c379a00000000000000000000000000000000000000000000000000000000081526004016104cf90612507565b60405180910390fd5b6004600083815260200190815260200160002060009054906101000a900473ffffffffffffffffffffffffffffffffffffffff169050919050565b600061051e826106c5565b90508073ffffffffffffffffffffffffffffffffffffffff168373ffffffffffffffffffffffffffffffffffffffff16141561058f576040517f08c379a000000000000000000000000000000000000000000000000000000000815260040161058690612587565b60405180910390fd5b8073ffffffffffffffffffffffffffffffffffffffff166105ae610d9a565b73ffffffffffffffffffffffffffffffffffffffff1614806105dd57506105dc816105d7610d9a565b610c30565b5b61061c576040517f08c379a000000000000000000000000000000000000000000000000000000000815260040161061390612487565b60405180910390fd5b6106268383610da2565b505050565b61063c610636610d9a565b82610e5b565b61067b576040517f08c379a0000000000000000000000000000000000000000000000000000000008152600401610672906125a7565b60405180910390fd5b610686838383610f39565b505050565b6106a683838360405180602001604052806000815250610a42565b505050565b80600790805190602001906106c1929190611821565b5050565b6000806002600084815260200190815260200160002060009054906101000a900473ffffffffffffffffffffffffffffffffffffffff169050600073ffffffffffffffffffffffffffffffffffffffff168173ffffffffffffffffffffffffffffffffffffffff16141561076e576040517f08c379a0000000000000000000000000000000000000000000000000000000008152600401610765906124c7565b60405180910390fd5b80915050919050565b60008073ffffffffffffffffffffffffffffffffffffffff168273ffffffffffffffffffffffffffffffffffffffff1614156107e8576040517f08c379a00000000000000000000000000000000000000000000000000000000081526004016107df906124a7565b60405180910390fd5b600360008373ffffffffffffffffffffffffffffffffffffffff1673ffffffffffffffffffffffffffffffffffffffff168152602001908152602001600020549050919050565b60606001805461083e90612827565b80601f016020809104026020016040519081016040528092919081815260200182805461086a90612827565b80156108b75780601f1061088c576101008083540402835291602001916108b7565b820191906000526020600020905b81548152906001019060200180831161089a57829003601f168201915b5050505050905090565b6108c9610d9a565b73ffffffffffffffffffffffffffffffffffffffff168273ffffffffffffffffffffffffffffffffffffffff161415610937576040517f08c379a000000000000000000000000000000000000000000000000000000000815260040161092e90612447565b60405180910390fd5b8060056000610944610d9a565b73ffffffffffffffffffffffffffffffffffffffff1673ffffffffffffffffffffffffffffffffffffffff16815260200190815260200160002060008473ffffffffffffffffffffffffffffffffffffffff1673ffffffffffffffffffffffffffffffffffffffff16815260200190815260200160002060006101000a81548160ff0219169083151502179055508173ffffffffffffffffffffffffffffffffffffffff166109f1610d9a565b73ffffffffffffffffffffffffffffffffffffffff167f17307eab39ab6107e8899845ad3d59bd9653f200f220920489ca2b5937696c3183604051610a3691906123aa565b60405180910390a35050565b610a53610a4d610d9a565b83610e5b565b610a92576040517f08c379a0000000000000000000000000000000000000000000000000000000008152600401610a89906125a7565b60405180910390fd5b610a9e84848484611195565b50505050565b6060610aaf82610d2e565b610aee576040517f08c379a0000000000000000000000000000000000000000000000000000000008152600401610ae590612567565b60405180910390fd5b6000600660008481526020019081526020016000208054610b0e90612827565b80601f0160208091040260200160405190810160405280929190818152602001828054610b3a90612827565b8015610b875780601f10610b5c57610100808354040283529160200191610b87565b820191906000526020600020905b815481529060010190602001808311610b6a57829003601f168201915b505050505090506000610b986111f1565b9050600081511415610bae578192505050610c12565b600082511115610be3578082604051602001610bcb92919061231f565b60405160208183030381529060405292505050610c12565b80610bed85611283565b604051602001610bfe92919061231f565b604051602081830303815290604052925050505b919050565b610c218383611430565b610c2b82826115fe565b505050565b6000600560008473ffffffffffffffffffffffffffffffffffffffff1673ffffffffffffffffffffffffffffffffffffffff16815260200190815260200160002060008373ffffffffffffffffffffffffffffffffffffffff1673ffffffffffffffffffffffffffffffffffffffff16815260200190815260200160002060009054906101000a900460ff16905092915050565b60007f01ffc9a7000000000000000000000000000000000000000000000000000000007bffffffffffffffffffffffffffffffffffffffffffffffffffffffff1916827bffffffffffffffffffffffffffffffffffffffffffffffffffffffff1916149050919050565b60008073ffffffffffffffffffffffffffffffffffffffff166002600084815260200190815260200160002060009054906101000a900473ffffffffffffffffffffffffffffffffffffffff1673ffffffffffffffffffffffffffffffffffffffff1614159050919050565b600033905090565b816004600083815260200190815260200160002060006101000a81548173ffffffffffffffffffffffffffffffffffffffff021916908373ffffffffffffffffffffffffffffffffffffffff160217905550808273ffffffffffffffffffffffffffffffffffffffff16610e15836106c5565b73ffffffffffffffffffffffffffffffffffffffff167f8c5be1e5ebec7d5bd14f71427d1e84f3dd0314c0f7b2291e5b200ac8c7c3b92560405160405180910390a45050565b6000610e6682610d2e565b610ea5576040517f08c379a0000000000000000000000000000000000000000000000000000000008152600401610e9c90612467565b60405180910390fd5b6000610eb0836106c5565b90508073ffffffffffffffffffffffffffffffffffffffff168473ffffffffffffffffffffffffffffffffffffffff161480610f1f57508373ffffffffffffffffffffffffffffffffffffffff16610f078461048e565b73ffffffffffffffffffffffffffffffffffffffff16145b80610f305750610f2f8185610c30565b5b91505092915050565b8273ffffffffffffffffffffffffffffffffffffffff16610f59826106c5565b73ffffffffffffffffffffffffffffffffffffffff1614610faf576040517f08c379a0000000000000000000000000000000000000000000000000000000008152600401610fa690612547565b60405180910390fd5b600073ffffffffffffffffffffffffffffffffffffffff168273ffffffffffffffffffffffffffffffffffffffff16141561101f576040517f08c379a000000000000000000000000000000000000000000000000000000000815260040161101690612427565b60405180910390fd5b61102a838383611672565b611035600082610da2565b6001600360008573ffffffffffffffffffffffffffffffffffffffff1673ffffffffffffffffffffffffffffffffffffffff1681526020019081526020016000206000828254611085919061273d565b925050819055506001600360008473ffffffffffffffffffffffffffffffffffffffff1673ffffffffffffffffffffffffffffffffffffffff16815260200190815260200160002060008282546110dc91906126b6565b92505081905550816002600083815260200190815260200160002060006101000a81548173ffffffffffffffffffffffffffffffffffffffff021916908373ffffffffffffffffffffffffffffffffffffffff160217905550808273ffffffffffffffffffffffffffffffffffffffff168473ffffffffffffffffffffffffffffffffffffffff167fddf252ad1be2c89b69c2b068fc378daa952ba7f163c4a11628f55a4df523b3ef60405160405180910390a4505050565b6111a0848484610f39565b6111ac84848484611677565b6111eb576040517f08c379a00000000000000000000000000000000000000000000000000000000081526004016111e2906123e7565b60405180910390fd5b50505050565b60606007805461120090612827565b80601f016020809104026020016040519081016040528092919081815260200182805461122c90612827565b80156112795780601f1061124e57610100808354040283529160200191611279565b820191906000526020600020905b81548152906001019060200180831161125c57829003601f168201915b5050505050905090565b606060008214156112cb576040518060400160405280600181526020017f3000000000000000000000000000000000000000000000000000000000000000815250905061142b565b600082905060005b600082146112fd5780806112e690612859565b915050600a826112f6919061270c565b91506112d3565b60008167ffffffffffffffff81111561133f577f4e487b7100000000000000000000000000000000000000000000000000000000600052604160045260246000fd5b6040519080825280601f01601f1916602001820160405280156113715781602001600182028036833780820191505090505b5090505b600085146114245760018261138a919061273d565b9150600a8561139991906128a2565b60306113a591906126b6565b60f81b8183815181106113e1577f4e487b7100000000000000000000000000000000000000000000000000000000600052603260045260246000fd5b60200101907effffffffffffffffffffffffffffffffffffffffffffffffffffffffffffff1916908160001a905350600a8561141d919061270c565b9450611375565b8093505050505b919050565b600073ffffffffffffffffffffffffffffffffffffffff168273ffffffffffffffffffffffffffffffffffffffff1614156114a0576040517f08c379a0000000000000000000000000000000000000000000000000000000008152600401611497906124e7565b60405180910390fd5b6114a981610d2e565b156114e9576040517f08c379a00000000000000000000000000000000000000000000000000000000081526004016114e090612407565b60405180910390fd5b6114f560008383611672565b6001600360008473ffffffffffffffffffffffffffffffffffffffff1673ffffffffffffffffffffffffffffffffffffffff168152602001908152602001600020600082825461154591906126b6565b92505081905550816002600083815260200190815260200160002060006101000a81548173ffffffffffffffffffffffffffffffffffffffff021916908373ffffffffffffffffffffffffffffffffffffffff160217905550808273ffffffffffffffffffffffffffffffffffffffff16600073ffffffffffffffffffffffffffffffffffffffff167fddf252ad1be2c89b69c2b068fc378daa952ba7f163c4a11628f55a4df523b3ef60405160405180910390a45050565b61160782610d2e565b611646576040517f08c379a000000000000000000000000000000000000000000000000000000000815260040161163d90612527565b60405180910390fd5b8060066000848152602001908152602001600020908051906020019061166d929190611821565b505050565b505050565b60006116988473ffffffffffffffffffffffffffffffffffffffff1661180e565b15611801578373ffffffffffffffffffffffffffffffffffffffff1663150b7a026116c1610d9a565b8786866040518563ffffffff1660e01b81526004016116e3949392919061235e565b602060405180830381600087803b1580156116fd57600080fd5b505af192505050801561172e57506040513d601f19601f8201168201806040525081019061172b9190611c34565b60015b6117b1573d806000811461175e576040519150601f19603f3d011682016040523d82523d6000602084013e611763565b606091505b506000815114156117a9576040517f08c379a00000000000000000000000000000000000000000000000000000000081526004016117a0906123e7565b60405180910390fd5b805181602001fd5b63150b7a0260e01b7bffffffffffffffffffffffffffffffffffffffffffffffffffffffff1916817bffffffffffffffffffffffffffffffffffffffffffffffffffffffff191614915050611806565b600190505b949350505050565b600080823b905060008111915050919050565b82805461182d90612827565b90600052602060002090601f01602090048101928261184f5760008555611896565b82601f1061186857805160ff1916838001178555611896565b82800160010185558215611896579182015b8281111561189557825182559160200191906001019061187a565b5b5090506118a391906118a7565b5090565b5b808211156118c05760008160009055506001016118a8565b5090565b60006118d76118d284612613565b6125e2565b9050828152602081018484840111156118ef57600080fd5b6118fa8482856127e5565b509392505050565b600061191561191084612643565b6125e2565b90508281526020810184848401111561192d57600080fd5b6119388482856127e5565b509392505050565b60008135905061194f816129a0565b92915050565b600081359050611964816129b7565b92915050565b600081359050611979816129ce565b92915050565b60008151905061198e816129ce565b92915050565b600082601f8301126119a557600080fd5b81356119b58482602086016118c4565b91505092915050565b600082601f8301126119cf57600080fd5b81356119df848260208601611902565b91505092915050565b6000813590506119f7816129e5565b92915050565b600060208284031215611a0f57600080fd5b6000611a1d84828501611940565b91505092915050565b60008060408385031215611a3957600080fd5b6000611a4785828601611940565b9250506020611a5885828601611940565b9150509250929050565b600080600060608486031215611a7757600080fd5b6000611a8586828701611940565b9350506020611a9686828701611940565b9250506040611aa7868287016119e8565b9150509250925092565b60008060008060808587031215611ac757600080fd5b6000611ad587828801611940565b9450506020611ae687828801611940565b9350506040611af7878288016119e8565b925050606085013567ffffffffffffffff811115611b1457600080fd5b611b2087828801611994565b91505092959194509250565b60008060408385031215611b3f57600080fd5b6000611b4d85828601611940565b9250506020611b5e85828601611955565b9150509250929050565b60008060408385031215611b7b57600080fd5b6000611b8985828601611940565b9250506020611b9a858286016119e8565b9150509250929050565b600080600060608486031215611bb957600080fd5b6000611bc786828701611940565b9350506020611bd8868287016119e8565b925050604084013567ffffffffffffffff811115611bf557600080fd5b611c01868287016119be565b9150509250925092565b600060208284031215611c1d57600080fd5b6000611c2b8482850161196a565b91505092915050565b600060208284031215611c4657600080fd5b6000611c548482850161197f565b91505092915050565b600060208284031215611c6f57600080fd5b600082013567ffffffffffffffff811115611c8957600080fd5b611c95848285016119be565b91505092915050565b600060208284031215611cb057600080fd5b6000611cbe848285016119e8565b91505092915050565b611cd081612771565b82525050565b611cdf81612783565b82525050565b6000611cf082612673565b611cfa8185612689565b9350611d0a8185602086016127f4565b611d138161298f565b840191505092915050565b6000611d298261267e565b611d33818561269a565b9350611d438185602086016127f4565b611d4c8161298f565b840191505092915050565b6000611d628261267e565b611d6c81856126ab565b9350611d7c8185602086016127f4565b80840191505092915050565b6000611d9560328361269a565b91507f4552433732313a207472616e7366657220746f206e6f6e20455243373231526560008301527f63656976657220696d706c656d656e74657200000000000000000000000000006020830152604082019050919050565b6000611dfb601c8361269a565b91507f4552433732313a20746f6b656e20616c7265616479206d696e746564000000006000830152602082019050919050565b6000611e3b60248361269a565b91507f4552433732313a207472616e7366657220746f20746865207a65726f2061646460008301527f72657373000000000000000000000000000000000000000000000000000000006020830152604082019050919050565b6000611ea160198361269a565b91507f4552433732313a20617070726f766520746f2063616c6c6572000000000000006000830152602082019050919050565b6000611ee1602c8361269a565b91507f4552433732313a206f70657261746f7220717565727920666f72206e6f6e657860008301527f697374656e7420746f6b656e00000000000000000000000000000000000000006020830152604082019050919050565b6000611f4760388361269a565b91507f4552433732313a20617070726f76652063616c6c6572206973206e6f74206f7760008301527f6e6572206e6f7220617070726f76656420666f7220616c6c00000000000000006020830152604082019050919050565b6000611fad602a8361269a565b91507f4552433732313a2062616c616e636520717565727920666f7220746865207a6560008301527f726f2061646472657373000000000000000000000000000000000000000000006020830152604082019050919050565b600061201360298361269a565b91507f4552433732313a206f776e657220717565727920666f72206e6f6e657869737460008301527f656e7420746f6b656e00000000000000000000000000000000000000000000006020830152604082019050919050565b600061207960208361269a565b91507f4552433732313a206d696e7420746f20746865207a65726f20616464726573736000830152602082019050919050565b60006120b9602c8361269a565b91507f4552433732313a20617070726f76656420717565727920666f72206e6f6e657860008301527f697374656e7420746f6b656e00000000000000000000000000000000000000006020830152604082019050919050565b600061211f602c8361269a565b91507f4552433732314d657461646174613a2055524920736574206f66206e6f6e657860008301527f697374656e7420746f6b656e00000000000000000000000000000000000000006020830152604082019050919050565b600061218560298361269a565b91507f4552433732313a207472616e73666572206f6620746f6b656e2074686174206960008301527f73206e6f74206f776e00000000000000000000000000000000000000000000006020830152604082019050919050565b60006121eb602f8361269a565b91507f4552433732314d657461646174613a2055524920717565727920666f72206e6f60008301527f6e6578697374656e7420746f6b656e00000000000000000000000000000000006020830152604082019050919050565b600061225160218361269a565b91507f4552433732313a20617070726f76616c20746f2063757272656e74206f776e6560008301527f72000000000000000000000000000000000000000000000000000000000000006020830152604082019050919050565b60006122b760318361269a565b91507f4552433732313a207472616e736665722063616c6c6572206973206e6f74206f60008301527f776e6572206e6f7220617070726f7665640000000000000000000000000000006020830152604082019050919050565b612319816127db565b82525050565b600061232b8285611d57565b91506123378284611d57565b91508190509392505050565b60006020820190506123586000830184611cc7565b92915050565b60006080820190506123736000830187611cc7565b6123806020830186611cc7565b61238d6040830185612310565b818103606083015261239f8184611ce5565b905095945050505050565b60006020820190506123bf6000830184611cd6565b92915050565b600060208201905081810360008301526123df8184611d1e565b905092915050565b6000602082019050818103600083015261240081611d88565b9050919050565b6000602082019050818103600083015261242081611dee565b9050919050565b6000602082019050818103600083015261244081611e2e565b9050919050565b6000602082019050818103600083015261246081611e94565b9050919050565b6000602082019050818103600083015261248081611ed4565b9050919050565b600060208201905081810360008301526124a081611f3a565b9050919050565b600060208201905081810360008301526124c081611fa0565b9050919050565b600060208201905081810360008301526124e081612006565b9050919050565b600060208201905081810360008301526125008161206c565b9050919050565b60006020820190508181036000830152612520816120ac565b9050919050565b6000602082019050818103600083015261254081612112565b9050919050565b6000602082019050818103600083015261256081612178565b9050919050565b60006020820190508181036000830152612580816121de565b9050919050565b600060208201905081810360008301526125a081612244565b9050919050565b600060208201905081810360008301526125c0816122aa565b9050919050565b60006020820190506125dc6000830184612310565b92915050565b6000604051905081810181811067ffffffffffffffff8211171561260957612608612960565b5b8060405250919050565b600067ffffffffffffffff82111561262e5761262d612960565b5b601f19601f8301169050602081019050919050565b600067ffffffffffffffff82111561265e5761265d612960565b5b601f19601f8301169050602081019050919050565b600081519050919050565b600081519050919050565b600082825260208201905092915050565b600082825260208201905092915050565b600081905092915050565b60006126c1826127db565b91506126cc836127db565b9250827fffffffffffffffffffffffffffffffffffffffffffffffffffffffffffffffff03821115612701576127006128d3565b5b828201905092915050565b6000612717826127db565b9150612722836127db565b92508261273257612731612902565b5b828204905092915050565b6000612748826127db565b9150612753836127db565b925082821015612766576127656128d3565b5b828203905092915050565b600061277c826127bb565b9050919050565b60008115159050919050565b60007fffffffff0000000000000000000000000000000000000000000000000000000082169050919050565b600073ffffffffffffffffffffffffffffffffffffffff82169050919050565b6000819050919050565b82818337600083830152505050565b60005b838110156128125780820151818401526020810190506127f7565b83811115612821576000848401525b50505050565b6000600282049050600182168061283f57607f821691505b6020821081141561285357612852612931565b5b50919050565b6000612864826127db565b91507fffffffffffffffffffffffffffffffffffffffffffffffffffffffffffffffff821415612897576128966128d3565b5b600182019050919050565b60006128ad826127db565b91506128b8836127db565b9250826128c8576128c7612902565b5b828206905092915050565b7f4e487b7100000000000000000000000000000000000000000000000000000000600052601160045260246000fd5b7f4e487b7100000000000000000000000000000000000000000000000000000000600052601260045260246000fd5b7f4e487b7100000000000000000000000000000000000000000000000000000000600052602260045260246000fd5b7f4e487b7100000000000000000000000000000000000000000000000000000000600052604160045260246000fd5b6000601f19601f8301169050919050565b6129a981612771565b81146129b457600080fd5b50565b6129c081612783565b81146129cb57600080fd5b50565b6129d78161278f565b81146129e257600080fd5b50565b6129ee816127db565b81146129f957600080fd5b5056fea264697066735822122047f3a7abcf85cec28e50734fc86471d65c9f7b7079b2ba94ca7665e56ae713f564736f6c63430008000033",
  "immutableReferences": {},
  "source": "pragma solidity ^0.8.0;\n\n// import 'https://github.com/OpenZeppelin/openzeppelin-contracts/blob/master/contracts/token/ERC721/ERC721.sol';\n// import 'https://github.com/OpenZeppelin/openzeppelin-contracts/blob/master/contracts/access/Ownable.sol';\nimport \"@openzeppelin/contracts/token/ERC721/ERC721.sol\";\n\ncontract Example is ERC721 {\n    \n    using Strings for uint256;\n    \n    // Optional mapping for token URIs\n    mapping (uint256 => string) private _tokenURIs;\n\n    // Base URI\n    string private _baseURIextended;\n\n\n    constructor(string memory _name, string memory _symbol)\n        ERC721(_name, _symbol)\n    {}\n    \n    function setBaseURI(string memory baseURI_) external {\n        _baseURIextended = baseURI_;\n    }\n    \n    function _setTokenURI(uint256 tokenId, string memory _tokenURI) internal virtual {\n        require(_exists(tokenId), \"ERC721Metadata: URI set of nonexistent token\");\n        _tokenURIs[tokenId] = _tokenURI;\n    }\n    \n    function _baseURI() internal view virtual override returns (string memory) {\n        return _baseURIextended;\n    }\n    \n    function tokenURI(uint256 tokenId) public view virtual override returns (string memory) {\n        require(_exists(tokenId), \"ERC721Metadata: URI query for nonexistent token\");\n\n        string memory _tokenURI = _tokenURIs[tokenId];\n        string memory base = _baseURI();\n        \n        // If there is no base URI, return the token URI.\n        if (bytes(base).length == 0) {\n            return _tokenURI;\n        }\n        // If both are set, concatenate the baseURI and tokenURI (via abi.encodePacked).\n        if (bytes(_tokenURI).length > 0) {\n            return string(abi.encodePacked(base, _tokenURI));\n        }\n        // If there is a baseURI but no tokenURI, concatenate the tokenID to the baseURI.\n        return string(abi.encodePacked(base, tokenId.toString()));\n    }\n    \n\n    function mint(\n        address _to,\n        uint256 _tokenId,\n        string memory tokenURI_\n    ) external {\n        _mint(_to, _tokenId);\n        _setTokenURI(_tokenId, tokenURI_);\n    }\n}",
  "sourcePath": "/Users/neil/Google Drive/Career/Projects/Blockchain/erc721-token/contracts/TokenURI.sol",
  "compiler": {
    "name": "solc",
    "version": "0.8.0+commit.c7dfd78e.Emscripten.clang"
  },
  "schemaVersion": "3.4.3",
  "updatedAt": "2021-08-14T00:25:52.649Z",
  "devdoc": {
    "kind": "dev",
    "methods": {
      "approve(address,uint256)": {
        "details": "See {IERC721-approve}."
      },
      "balanceOf(address)": {
        "details": "See {IERC721-balanceOf}."
      },
      "getApproved(uint256)": {
        "details": "See {IERC721-getApproved}."
      },
      "isApprovedForAll(address,address)": {
        "details": "See {IERC721-isApprovedForAll}."
      },
      "name()": {
        "details": "See {IERC721Metadata-name}."
      },
      "ownerOf(uint256)": {
        "details": "See {IERC721-ownerOf}."
      },
      "safeTransferFrom(address,address,uint256)": {
        "details": "See {IERC721-safeTransferFrom}."
      },
      "safeTransferFrom(address,address,uint256,bytes)": {
        "details": "See {IERC721-safeTransferFrom}."
      },
      "setApprovalForAll(address,bool)": {
        "details": "See {IERC721-setApprovalForAll}."
      },
      "supportsInterface(bytes4)": {
        "details": "See {IERC165-supportsInterface}."
      },
      "symbol()": {
        "details": "See {IERC721Metadata-symbol}."
      },
      "tokenURI(uint256)": {
        "details": "See {IERC721Metadata-tokenURI}."
      },
      "transferFrom(address,address,uint256)": {
        "details": "See {IERC721-transferFrom}."
      }
    },
    "version": 1
  },
  "userdoc": {
    "kind": "user",
    "methods": {},
    "version": 1
  }
}